{
  "_format": "hh-sol-artifact-1",
  "contractName": "CoreLoanPlatform",
  "sourceName": "contracts/CoreLoanPlatform.sol",
  "abi": [
    {
      "inputs": [
        {
          "internalType": "address",
          "name": "_USD",
          "type": "address"
        },
        {
          "internalType": "address",
          "name": "_BTC",
          "type": "address"
        }
      ],
      "stateMutability": "nonpayable",
      "type": "constructor"
    },
    {
      "inputs": [
        {
          "internalType": "address",
          "name": "target",
          "type": "address"
        }
      ],
      "name": "AddressEmptyCode",
      "type": "error"
    },
    {
      "inputs": [
        {
          "internalType": "address",
          "name": "account",
          "type": "address"
        }
      ],
      "name": "AddressInsufficientBalance",
      "type": "error"
    },
    {
      "inputs": [],
      "name": "FailedInnerCall",
      "type": "error"
    },
    {
      "inputs": [
        {
          "internalType": "address",
          "name": "owner",
          "type": "address"
        }
      ],
      "name": "OwnableInvalidOwner",
      "type": "error"
    },
    {
      "inputs": [
        {
          "internalType": "address",
          "name": "account",
          "type": "address"
        }
      ],
      "name": "OwnableUnauthorizedAccount",
      "type": "error"
    },
    {
      "inputs": [
        {
          "internalType": "address",
          "name": "token",
          "type": "address"
        }
      ],
      "name": "SafeERC20FailedOperation",
      "type": "error"
    },
    {
      "anonymous": false,
      "inputs": [
        {
          "indexed": true,
          "internalType": "address",
          "name": "lender",
          "type": "address"
        },
        {
          "indexed": false,
          "internalType": "uint256",
          "name": "amount",
          "type": "uint256"
        }
      ],
      "name": "BTCDeposited",
      "type": "event"
    },
    {
      "anonymous": false,
      "inputs": [
        {
          "indexed": true,
          "internalType": "address",
          "name": "lender",
          "type": "address"
        },
        {
          "indexed": false,
          "internalType": "uint256",
          "name": "amount",
          "type": "uint256"
        }
      ],
      "name": "BTCWithdrawn",
      "type": "event"
    },
    {
      "anonymous": false,
      "inputs": [
        {
          "indexed": true,
          "internalType": "address",
          "name": "user",
          "type": "address"
        },
        {
          "indexed": false,
          "internalType": "uint256",
          "name": "amount",
          "type": "uint256"
        }
      ],
      "name": "CollateralDeposited",
      "type": "event"
    },
    {
      "anonymous": false,
      "inputs": [
        {
          "indexed": true,
          "internalType": "address",
          "name": "user",
          "type": "address"
        },
        {
          "indexed": false,
          "internalType": "uint256",
          "name": "amount",
          "type": "uint256"
        }
      ],
      "name": "CollateralWithdrawn",
      "type": "event"
    },
    {
      "anonymous": false,
      "inputs": [
        {
          "indexed": true,
          "internalType": "address",
          "name": "borrower",
          "type": "address"
        },
        {
          "indexed": false,
          "internalType": "uint256",
          "name": "amount",
          "type": "uint256"
        },
        {
          "indexed": false,
          "internalType": "uint256",
          "name": "interest",
          "type": "uint256"
        }
      ],
      "name": "LoanRepaid",
      "type": "event"
    },
    {
      "anonymous": false,
      "inputs": [
        {
          "indexed": true,
          "internalType": "address",
          "name": "borrower",
          "type": "address"
        },
        {
          "indexed": false,
          "internalType": "uint256",
          "name": "amount",
          "type": "uint256"
        },
        {
          "indexed": false,
          "internalType": "uint256",
          "name": "collateral",
          "type": "uint256"
        }
      ],
      "name": "LoanTaken",
      "type": "event"
    },
    {
      "anonymous": false,
      "inputs": [
        {
          "indexed": true,
          "internalType": "address",
          "name": "previousOwner",
          "type": "address"
        },
        {
          "indexed": true,
          "internalType": "address",
          "name": "newOwner",
          "type": "address"
        }
      ],
      "name": "OwnershipTransferred",
      "type": "event"
    },
    {
      "inputs": [],
      "name": "BORROWABLE_RATIO",
      "outputs": [
        {
          "internalType": "uint256",
          "name": "",
          "type": "uint256"
        }
      ],
      "stateMutability": "view",
      "type": "function"
    },
    {
      "inputs": [],
      "name": "BTC",
      "outputs": [
        {
          "internalType": "contract IERC20",
          "name": "",
          "type": "address"
        }
      ],
      "stateMutability": "view",
      "type": "function"
    },
    {
      "inputs": [],
      "name": "COLLATERAL_RATIO",
      "outputs": [
        {
          "internalType": "uint256",
          "name": "",
          "type": "uint256"
        }
      ],
      "stateMutability": "view",
      "type": "function"
    },
    {
      "inputs": [],
      "name": "INTEREST_RATE",
      "outputs": [
        {
          "internalType": "uint256",
          "name": "",
          "type": "uint256"
        }
      ],
      "stateMutability": "view",
      "type": "function"
    },
    {
      "inputs": [],
      "name": "LOAN_DURATION",
      "outputs": [
        {
          "internalType": "uint256",
          "name": "",
          "type": "uint256"
        }
      ],
      "stateMutability": "view",
      "type": "function"
    },
    {
      "inputs": [],
      "name": "USD",
      "outputs": [
        {
          "internalType": "contract IERC20",
          "name": "",
          "type": "address"
        }
      ],
      "stateMutability": "view",
      "type": "function"
    },
    {
      "inputs": [
        {
          "internalType": "uint256",
          "name": "amount",
          "type": "uint256"
        }
      ],
      "name": "borrowBTC",
      "outputs": [],
      "stateMutability": "nonpayable",
      "type": "function"
    },
    {
      "inputs": [
        {
          "internalType": "address",
          "name": "user",
          "type": "address"
        }
      ],
      "name": "calculateInterest",
      "outputs": [
        {
          "internalType": "uint256",
          "name": "",
          "type": "uint256"
        }
      ],
      "stateMutability": "view",
      "type": "function"
    },
    {
      "inputs": [
        {
          "internalType": "uint256",
          "name": "amount",
          "type": "uint256"
        }
      ],
      "name": "depositBTC",
      "outputs": [],
      "stateMutability": "nonpayable",
      "type": "function"
    },
    {
      "inputs": [
        {
          "internalType": "uint256",
          "name": "amount",
          "type": "uint256"
        }
      ],
      "name": "depositCollateral",
      "outputs": [],
      "stateMutability": "nonpayable",
      "type": "function"
    },
    {
      "inputs": [
        {
          "internalType": "address",
          "name": "user",
          "type": "address"
        }
      ],
      "name": "getBorrowableAmount",
      "outputs": [
        {
          "internalType": "uint256",
          "name": "",
          "type": "uint256"
        }
      ],
      "stateMutability": "view",
      "type": "function"
    },
    {
      "inputs": [],
      "name": "getCurrentApy",
      "outputs": [
        {
          "internalType": "uint256",
          "name": "",
          "type": "uint256"
        }
      ],
      "stateMutability": "pure",
      "type": "function"
    },
    {
      "inputs": [
        {
          "internalType": "address",
          "name": "lender",
          "type": "address"
        }
      ],
      "name": "getLenderBalance",
      "outputs": [
        {
          "internalType": "uint256",
          "name": "",
          "type": "uint256"
        }
      ],
      "stateMutability": "view",
      "type": "function"
    },
    {
      "inputs": [
        {
          "internalType": "address",
          "name": "borrower",
          "type": "address"
        }
      ],
      "name": "getLoanDetails",
      "outputs": [
        {
          "components": [
            {
              "internalType": "uint256",
              "name": "amount",
              "type": "uint256"
            },
            {
              "internalType": "uint256",
              "name": "collateral",
              "type": "uint256"
            },
            {
              "internalType": "uint256",
              "name": "timestamp",
              "type": "uint256"
            },
            {
              "internalType": "bool",
              "name": "active",
              "type": "bool"
            }
          ],
          "internalType": "struct CoreLoanPlatform.Loan",
          "name": "",
          "type": "tuple"
        }
      ],
      "stateMutability": "view",
      "type": "function"
    },
    {
      "inputs": [],
      "name": "getTotalBorrowed",
      "outputs": [
        {
          "internalType": "uint256",
          "name": "",
          "type": "uint256"
        }
      ],
      "stateMutability": "view",
      "type": "function"
    },
    {
      "inputs": [],
      "name": "getTotalStaked",
      "outputs": [
        {
          "internalType": "uint256",
          "name": "",
          "type": "uint256"
        }
      ],
      "stateMutability": "view",
      "type": "function"
    },
    {
      "inputs": [
        {
          "internalType": "address",
          "name": "user",
          "type": "address"
        }
      ],
      "name": "getUserBorrowed",
      "outputs": [
        {
          "internalType": "uint256",
          "name": "",
          "type": "uint256"
        }
      ],
      "stateMutability": "view",
      "type": "function"
    },
    {
      "inputs": [
        {
          "internalType": "address",
          "name": "user",
          "type": "address"
        }
      ],
      "name": "getUserCollateral",
      "outputs": [
        {
          "internalType": "uint256",
          "name": "",
          "type": "uint256"
        }
      ],
      "stateMutability": "view",
      "type": "function"
    },
    {
      "inputs": [
        {
          "internalType": "address",
          "name": "user",
          "type": "address"
        }
      ],
      "name": "getUserStaked",
      "outputs": [
        {
          "internalType": "uint256",
          "name": "",
          "type": "uint256"
        }
      ],
      "stateMutability": "view",
      "type": "function"
    },
    {
      "inputs": [
        {
          "internalType": "address",
          "name": "",
          "type": "address"
        }
      ],
      "name": "lenderBalances",
      "outputs": [
        {
          "internalType": "uint256",
          "name": "",
          "type": "uint256"
        }
      ],
      "stateMutability": "view",
      "type": "function"
    },
    {
      "inputs": [
        {
          "internalType": "address",
          "name": "",
          "type": "address"
        }
      ],
      "name": "loans",
      "outputs": [
        {
          "internalType": "uint256",
          "name": "amount",
          "type": "uint256"
        },
        {
          "internalType": "uint256",
          "name": "collateral",
          "type": "uint256"
        },
        {
          "internalType": "uint256",
          "name": "timestamp",
          "type": "uint256"
        },
        {
          "internalType": "bool",
          "name": "active",
          "type": "bool"
        }
      ],
      "stateMutability": "view",
      "type": "function"
    },
    {
      "inputs": [],
      "name": "owner",
      "outputs": [
        {
          "internalType": "address",
          "name": "",
          "type": "address"
        }
      ],
      "stateMutability": "view",
      "type": "function"
    },
    {
      "inputs": [],
      "name": "renounceOwnership",
      "outputs": [],
      "stateMutability": "nonpayable",
      "type": "function"
    },
    {
      "inputs": [
        {
          "internalType": "address",
          "name": "user",
          "type": "address"
        }
      ],
      "name": "repayLoan",
      "outputs": [],
      "stateMutability": "nonpayable",
      "type": "function"
    },
    {
      "inputs": [
        {
          "internalType": "address",
          "name": "newOwner",
          "type": "address"
        }
      ],
      "name": "transferOwnership",
      "outputs": [],
      "stateMutability": "nonpayable",
      "type": "function"
    },
    {
      "inputs": [
        {
          "internalType": "address",
          "name": "",
          "type": "address"
        }
      ],
      "name": "userCollateral",
      "outputs": [
        {
          "internalType": "uint256",
          "name": "",
          "type": "uint256"
        }
      ],
      "stateMutability": "view",
      "type": "function"
    },
    {
      "inputs": [
        {
          "internalType": "uint256",
          "name": "amount",
          "type": "uint256"
        }
      ],
      "name": "withdrawBTC",
      "outputs": [],
      "stateMutability": "nonpayable",
      "type": "function"
    },
    {
      "inputs": [
        {
          "internalType": "uint256",
          "name": "amount",
          "type": "uint256"
        }
      ],
      "name": "withdrawCollateral",
      "outputs": [],
      "stateMutability": "nonpayable",
      "type": "function"
    }
  ],
  "bytecode": "0x60c06040526000600155600060025534801561001a57600080fd5b50604051610e4a380380610e4a83398101604081905261003991610159565b338061006057604051631e4fbdf760e01b8152600060048201526024015b60405180910390fd5b610069816100ed565b506001600160a01b0382161580159061008a57506001600160a01b03811615155b6100d65760405162461bcd60e51b815260206004820152601760248201527f496e76616c696420746f6b656e206164647265737365730000000000000000006044820152606401610057565b6001600160a01b039182166080521660a05261018c565b600080546001600160a01b038381166001600160a01b0319831681178455604051919092169283917f8be0079c531659141344cd1fd0a4f28419497f9722a3daafe3b4186f6b6457e09190a35050565b80516001600160a01b038116811461015457600080fd5b919050565b6000806040838503121561016c57600080fd5b6101758361013d565b91506101836020840161013d565b90509250929050565b60805160a051610c8b6101bf60003960006102360152600081816101f7015281816105d501526106df0152610c8b6000f3fe608060405234801561001057600080fd5b50600436106101c45760003560e01c8063a6b6d798116100f9578063e02a4dfd11610097578063e8a7da8e11610071578063e8a7da8e14610393578063f2fde38b146103db578063f4925de5146101c9578063f69f1e4a146103ee57600080fd5b8063e02a4dfd14610389578063e11932cf1461036d578063e86ef40b1461036d57600080fd5b8063bd09085a116100d3578063bd09085a1461036d578063d1a4056414610303578063d9e69a0514610381578063dac3fc3f1461036d57600080fd5b8063a6b6d79814610303578063b6f7132f14610331578063bad4a01f1461035a57600080fd5b8063691d1eb31161016657806373b4086b1161014057806373b4086b146102965780638da5cb5b146102f257806390b4588b14610303578063a27a944d1461031157600080fd5b8063691d1eb3146102735780636e35f12414610286578063715018a61461028e57600080fd5b80631bf6c21b116101a25780631bf6c21b146101f25780632792949d146102315780635b72a33a146102585780636112fe2e1461026057600080fd5b80630307c4a1146101c95780630917e776146101c9578063190ef1e6146101df575b600080fd5b60005b6040519081526020015b60405180910390f35b6101f06101ed366004610b4d565b50565b005b6102197f000000000000000000000000000000000000000000000000000000000000000081565b6040516001600160a01b0390911681526020016101d6565b6102197f000000000000000000000000000000000000000000000000000000000000000081565b6101cc600581565b6101f061026e366004610b76565b61040e565b6101cc610281366004610b4d565b610636565b6101cc605081565b6101f061066e565b6102d06102a4366004610b4d565b600360208190526000918252604090912080546001820154600283015492909301549092919060ff1684565b60408051948552602085019390935291830152151560608201526080016101d6565b6000546001600160a01b0316610219565b6101f06101ed366004610b76565b6101cc61031f366004610b4d565b60056020526000908152604090205481565b6101cc61033f366004610b4d565b6001600160a01b031660009081526004602052604090205490565b6101f0610368366004610b76565b610682565b6101cc61037b366004610b4d565b50600090565b6101cc609681565b6101cc62278d0081565b6103a66103a1366004610b4d565b610763565b6040516101d6919081518152602080830151908201526040808301519082015260609182015115159181019190915260800190565b6101f06103e9366004610b4d565b610795565b6101cc6103fc366004610b4d565b60046020526000908152604090205481565b600081116104635760405162461bcd60e51b815260206004820152601d60248201527f416d6f756e74206d7573742062652067726561746572207468616e203000000060448201526064015b60405180910390fd5b336000908152600460205260409020548111156104c25760405162461bcd60e51b815260206004820152601760248201527f496e73756666696369656e7420636f6c6c61746572616c000000000000000000604482015260640161045a565b3360009081526003602081905260408220015460ff166104e35760006104f4565b336000908152600360205260409020545b905060006064610505609684610ba5565b61050f9190610bbc565b33600090815260046020526040902054909150819061052f908590610bde565b10156105a35760405162461bcd60e51b815260206004820152602860248201527f5769746864726177616c20776f756c6420756e646572636f6c6c61746572616c60448201527f697a65206c6f616e000000000000000000000000000000000000000000000000606482015260840161045a565b33600090815260046020526040812080548592906105c2908490610bde565b909155506105fc90506001600160a01b037f00000000000000000000000000000000000000000000000000000000000000001633856107e9565b60405183815233907fc30fcfbcaac9e0deffa719714eaa82396ff506a0d0d0eebe170830177288715d9060200160405180910390a2505050565b6001600160a01b03811660009081526004602052604081205460649061065e90605090610ba5565b6106689190610bbc565b92915050565b610676610862565b61068060006108a8565b565b600081116106d25760405162461bcd60e51b815260206004820152601d60248201527f416d6f756e74206d7573742062652067726561746572207468616e2030000000604482015260640161045a565b6107076001600160a01b037f000000000000000000000000000000000000000000000000000000000000000016333084610910565b3360009081526004602052604081208054839290610726908490610bf1565b909155505060405181815233907fd7243f6f8212d5188fd054141cf6ea89cfc0d91facb8c3afe2f88a13584801429060200160405180910390a250565b61079060405180608001604052806000815260200160008152602001600081526020016000151581525090565b919050565b61079d610862565b6001600160a01b0381166107e0576040517f1e4fbdf70000000000000000000000000000000000000000000000000000000081526000600482015260240161045a565b6101ed816108a8565b6040516001600160a01b0383811660248301526044820183905261085d91859182169063a9059cbb906064015b604051602081830303815290604052915060e01b6020820180517bffffffffffffffffffffffffffffffffffffffffffffffffffffffff838183161783525050505061094f565b505050565b6000546001600160a01b03163314610680576040517f118cdaa700000000000000000000000000000000000000000000000000000000815233600482015260240161045a565b600080546001600160a01b038381167fffffffffffffffffffffffff0000000000000000000000000000000000000000831681178455604051919092169283917f8be0079c531659141344cd1fd0a4f28419497f9722a3daafe3b4186f6b6457e09190a35050565b6040516001600160a01b0384811660248301528381166044830152606482018390526109499186918216906323b872dd90608401610816565b50505050565b60006109646001600160a01b038416836109cb565b905080516000141580156109895750808060200190518101906109879190610c04565b155b1561085d576040517f5274afe70000000000000000000000000000000000000000000000000000000081526001600160a01b038416600482015260240161045a565b60606109d9838360006109e0565b9392505050565b606081471015610a1e576040517fcd78605900000000000000000000000000000000000000000000000000000000815230600482015260240161045a565b600080856001600160a01b03168486604051610a3a9190610c26565b60006040518083038185875af1925050503d8060008114610a77576040519150601f19603f3d011682016040523d82523d6000602084013e610a7c565b606091505b5091509150610a8c868383610a96565b9695505050505050565b606082610aab57610aa682610b0b565b6109d9565b8151158015610ac257506001600160a01b0384163b155b15610b04576040517f9996b3150000000000000000000000000000000000000000000000000000000081526001600160a01b038516600482015260240161045a565b50806109d9565b805115610b1b5780518082602001fd5b6040517f1425ea4200000000000000000000000000000000000000000000000000000000815260040160405180910390fd5b600060208284031215610b5f57600080fd5b81356001600160a01b03811681146109d957600080fd5b600060208284031215610b8857600080fd5b5035919050565b634e487b7160e01b600052601160045260246000fd5b808202811582820484141761066857610668610b8f565b600082610bd957634e487b7160e01b600052601260045260246000fd5b500490565b8181038181111561066857610668610b8f565b8082018082111561066857610668610b8f565b600060208284031215610c1657600080fd5b815180151581146109d957600080fd5b6000825160005b81811015610c475760208186018101518583015201610c2d565b50600092019182525091905056fea2646970667358221220523a84d342e590c797422e35b0ccf3f14514a595fddb5d71872031c9c4a40a8b64736f6c63430008180033",
  "linkReferences": {},
  "deployedLinkReferences": {}
}