{
  "_format": "hh-sol-artifact-1",
  "contractName": "CoreLoanPlatform",
  "sourceName": "contracts/CoreLoanPlatform.sol",
  "abi": [
    {
      "inputs": [
        {
          "internalType": "address",
          "name": "_tUSDT",
          "type": "address"
        },
        {
          "internalType": "address",
          "name": "_tCORE",
          "type": "address"
        }
      ],
      "stateMutability": "nonpayable",
      "type": "constructor"
    },
    {
      "inputs": [
        {
          "internalType": "address",
          "name": "target",
          "type": "address"
        }
      ],
      "name": "AddressEmptyCode",
      "type": "error"
    },
    {
      "inputs": [
        {
          "internalType": "address",
          "name": "account",
          "type": "address"
        }
      ],
      "name": "AddressInsufficientBalance",
      "type": "error"
    },
    {
      "inputs": [],
      "name": "FailedInnerCall",
      "type": "error"
    },
    {
      "inputs": [
        {
          "internalType": "address",
          "name": "owner",
          "type": "address"
        }
      ],
      "name": "OwnableInvalidOwner",
      "type": "error"
    },
    {
      "inputs": [
        {
          "internalType": "address",
          "name": "account",
          "type": "address"
        }
      ],
      "name": "OwnableUnauthorizedAccount",
      "type": "error"
    },
    {
      "inputs": [
        {
          "internalType": "address",
          "name": "token",
          "type": "address"
        }
      ],
      "name": "SafeERC20FailedOperation",
      "type": "error"
    },
    {
      "anonymous": false,
      "inputs": [
        {
          "indexed": true,
          "internalType": "address",
          "name": "user",
          "type": "address"
        },
        {
          "indexed": false,
          "internalType": "uint256",
          "name": "amount",
          "type": "uint256"
        }
      ],
      "name": "CollateralDeposited",
      "type": "event"
    },
    {
      "anonymous": false,
      "inputs": [
        {
          "indexed": true,
          "internalType": "address",
          "name": "user",
          "type": "address"
        },
        {
          "indexed": false,
          "internalType": "uint256",
          "name": "amount",
          "type": "uint256"
        }
      ],
      "name": "CollateralWithdrawn",
      "type": "event"
    },
    {
      "anonymous": false,
      "inputs": [
        {
          "indexed": true,
          "internalType": "address",
          "name": "lender",
          "type": "address"
        },
        {
          "indexed": false,
          "internalType": "uint256",
          "name": "amount",
          "type": "uint256"
        }
      ],
      "name": "CoreDeposited",
      "type": "event"
    },
    {
      "anonymous": false,
      "inputs": [
        {
          "indexed": true,
          "internalType": "address",
          "name": "lender",
          "type": "address"
        },
        {
          "indexed": false,
          "internalType": "uint256",
          "name": "amount",
          "type": "uint256"
        }
      ],
      "name": "CoreWithdrawn",
      "type": "event"
    },
    {
      "anonymous": false,
      "inputs": [
        {
          "indexed": true,
          "internalType": "address",
          "name": "borrower",
          "type": "address"
        },
        {
          "indexed": false,
          "internalType": "uint256",
          "name": "amount",
          "type": "uint256"
        },
        {
          "indexed": false,
          "internalType": "uint256",
          "name": "interest",
          "type": "uint256"
        }
      ],
      "name": "LoanRepaid",
      "type": "event"
    },
    {
      "anonymous": false,
      "inputs": [
        {
          "indexed": true,
          "internalType": "address",
          "name": "borrower",
          "type": "address"
        },
        {
          "indexed": false,
          "internalType": "uint256",
          "name": "amount",
          "type": "uint256"
        },
        {
          "indexed": false,
          "internalType": "uint256",
          "name": "collateral",
          "type": "uint256"
        }
      ],
      "name": "LoanTaken",
      "type": "event"
    },
    {
      "anonymous": false,
      "inputs": [
        {
          "indexed": true,
          "internalType": "address",
          "name": "previousOwner",
          "type": "address"
        },
        {
          "indexed": true,
          "internalType": "address",
          "name": "newOwner",
          "type": "address"
        }
      ],
      "name": "OwnershipTransferred",
      "type": "event"
    },
    {
      "inputs": [],
      "name": "BORROWABLE_RATIO",
      "outputs": [
        {
          "internalType": "uint256",
          "name": "",
          "type": "uint256"
        }
      ],
      "stateMutability": "view",
      "type": "function"
    },
    {
      "inputs": [],
      "name": "COLLATERAL_RATIO",
      "outputs": [
        {
          "internalType": "uint256",
          "name": "",
          "type": "uint256"
        }
      ],
      "stateMutability": "view",
      "type": "function"
    },
    {
      "inputs": [],
      "name": "INTEREST_RATE",
      "outputs": [
        {
          "internalType": "uint256",
          "name": "",
          "type": "uint256"
        }
      ],
      "stateMutability": "view",
      "type": "function"
    },
    {
      "inputs": [],
      "name": "LOAN_DURATION",
      "outputs": [
        {
          "internalType": "uint256",
          "name": "",
          "type": "uint256"
        }
      ],
      "stateMutability": "view",
      "type": "function"
    },
    {
      "inputs": [
        {
          "internalType": "uint256",
          "name": "amount",
          "type": "uint256"
        }
      ],
      "name": "borrowCORE",
      "outputs": [],
      "stateMutability": "nonpayable",
      "type": "function"
    },
    {
      "inputs": [
        {
          "internalType": "uint256",
          "name": "amount",
          "type": "uint256"
        }
      ],
      "name": "depositCORE",
      "outputs": [],
      "stateMutability": "nonpayable",
      "type": "function"
    },
    {
      "inputs": [
        {
          "internalType": "uint256",
          "name": "amount",
          "type": "uint256"
        }
      ],
      "name": "depositCollateral",
      "outputs": [],
      "stateMutability": "nonpayable",
      "type": "function"
    },
    {
      "inputs": [
        {
          "internalType": "address",
          "name": "user",
          "type": "address"
        }
      ],
      "name": "getBorrowableAmount",
      "outputs": [
        {
          "internalType": "uint256",
          "name": "",
          "type": "uint256"
        }
      ],
      "stateMutability": "view",
      "type": "function"
    },
    {
      "inputs": [],
      "name": "getCurrentApy",
      "outputs": [
        {
          "internalType": "uint256",
          "name": "",
          "type": "uint256"
        }
      ],
      "stateMutability": "pure",
      "type": "function"
    },
    {
      "inputs": [
        {
          "internalType": "address",
          "name": "lender",
          "type": "address"
        }
      ],
      "name": "getLenderBalance",
      "outputs": [
        {
          "internalType": "uint256",
          "name": "",
          "type": "uint256"
        }
      ],
      "stateMutability": "view",
      "type": "function"
    },
    {
      "inputs": [
        {
          "internalType": "address",
          "name": "borrower",
          "type": "address"
        }
      ],
      "name": "getLoanDetails",
      "outputs": [
        {
          "components": [
            {
              "internalType": "uint256",
              "name": "amount",
              "type": "uint256"
            },
            {
              "internalType": "uint256",
              "name": "collateral",
              "type": "uint256"
            },
            {
              "internalType": "uint256",
              "name": "timestamp",
              "type": "uint256"
            },
            {
              "internalType": "bool",
              "name": "active",
              "type": "bool"
            }
          ],
          "internalType": "struct CoreLoanPlatform.Loan",
          "name": "",
          "type": "tuple"
        }
      ],
      "stateMutability": "view",
      "type": "function"
    },
    {
      "inputs": [],
      "name": "getTotalBorrowed",
      "outputs": [
        {
          "internalType": "uint256",
          "name": "",
          "type": "uint256"
        }
      ],
      "stateMutability": "view",
      "type": "function"
    },
    {
      "inputs": [],
      "name": "getTotalStaked",
      "outputs": [
        {
          "internalType": "uint256",
          "name": "",
          "type": "uint256"
        }
      ],
      "stateMutability": "view",
      "type": "function"
    },
    {
      "inputs": [
        {
          "internalType": "address",
          "name": "user",
          "type": "address"
        }
      ],
      "name": "getUserBorrowed",
      "outputs": [
        {
          "internalType": "uint256",
          "name": "",
          "type": "uint256"
        }
      ],
      "stateMutability": "view",
      "type": "function"
    },
    {
      "inputs": [
        {
          "internalType": "address",
          "name": "user",
          "type": "address"
        }
      ],
      "name": "getUserCollateral",
      "outputs": [
        {
          "internalType": "uint256",
          "name": "",
          "type": "uint256"
        }
      ],
      "stateMutability": "view",
      "type": "function"
    },
    {
      "inputs": [
        {
          "internalType": "address",
          "name": "user",
          "type": "address"
        }
      ],
      "name": "getUserStaked",
      "outputs": [
        {
          "internalType": "uint256",
          "name": "",
          "type": "uint256"
        }
      ],
      "stateMutability": "view",
      "type": "function"
    },
    {
      "inputs": [
        {
          "internalType": "address",
          "name": "",
          "type": "address"
        }
      ],
      "name": "lenderBalances",
      "outputs": [
        {
          "internalType": "uint256",
          "name": "",
          "type": "uint256"
        }
      ],
      "stateMutability": "view",
      "type": "function"
    },
    {
      "inputs": [
        {
          "internalType": "address",
          "name": "",
          "type": "address"
        }
      ],
      "name": "loans",
      "outputs": [
        {
          "internalType": "uint256",
          "name": "amount",
          "type": "uint256"
        },
        {
          "internalType": "uint256",
          "name": "collateral",
          "type": "uint256"
        },
        {
          "internalType": "uint256",
          "name": "timestamp",
          "type": "uint256"
        },
        {
          "internalType": "bool",
          "name": "active",
          "type": "bool"
        }
      ],
      "stateMutability": "view",
      "type": "function"
    },
    {
      "inputs": [],
      "name": "owner",
      "outputs": [
        {
          "internalType": "address",
          "name": "",
          "type": "address"
        }
      ],
      "stateMutability": "view",
      "type": "function"
    },
    {
      "inputs": [],
      "name": "renounceOwnership",
      "outputs": [],
      "stateMutability": "nonpayable",
      "type": "function"
    },
    {
      "inputs": [],
      "name": "repayLoan",
      "outputs": [],
      "stateMutability": "nonpayable",
      "type": "function"
    },
    {
      "inputs": [],
      "name": "tCORE",
      "outputs": [
        {
          "internalType": "contract IERC20",
          "name": "",
          "type": "address"
        }
      ],
      "stateMutability": "view",
      "type": "function"
    },
    {
      "inputs": [],
      "name": "tUSDT",
      "outputs": [
        {
          "internalType": "contract IERC20",
          "name": "",
          "type": "address"
        }
      ],
      "stateMutability": "view",
      "type": "function"
    },
    {
      "inputs": [
        {
          "internalType": "address",
          "name": "newOwner",
          "type": "address"
        }
      ],
      "name": "transferOwnership",
      "outputs": [],
      "stateMutability": "nonpayable",
      "type": "function"
    },
    {
      "inputs": [
        {
          "internalType": "address",
          "name": "",
          "type": "address"
        }
      ],
      "name": "userCollateral",
      "outputs": [
        {
          "internalType": "uint256",
          "name": "",
          "type": "uint256"
        }
      ],
      "stateMutability": "view",
      "type": "function"
    },
    {
      "inputs": [
        {
          "internalType": "uint256",
          "name": "amount",
          "type": "uint256"
        }
      ],
      "name": "withdrawCORE",
      "outputs": [],
      "stateMutability": "nonpayable",
      "type": "function"
    },
    {
      "inputs": [
        {
          "internalType": "uint256",
          "name": "amount",
          "type": "uint256"
        }
      ],
      "name": "withdrawCollateral",
      "outputs": [],
      "stateMutability": "nonpayable",
      "type": "function"
    }
  ],
  "bytecode": "0x60c06040523480156200001157600080fd5b50604051620017b5380380620017b583398101604081905262000034916200015c565b33806200005c57604051631e4fbdf760e01b8152600060048201526024015b60405180910390fd5b6200006781620000ef565b506001600160a01b038216158015906200008957506001600160a01b03811615155b620000d75760405162461bcd60e51b815260206004820152601760248201527f496e76616c696420746f6b656e20616464726573736573000000000000000000604482015260640162000053565b6001600160a01b039182166080521660a05262000194565b600080546001600160a01b038381166001600160a01b0319831681178455604051919092169283917f8be0079c531659141344cd1fd0a4f28419497f9722a3daafe3b4186f6b6457e09190a35050565b80516001600160a01b03811681146200015757600080fd5b919050565b600080604083850312156200017057600080fd5b6200017b836200013f565b91506200018b602084016200013f565b90509250929050565b60805160a0516115b562000200600039600081816102780152818161048e01528181610503015281816108080152818161093201528181610ce101528181610e79015261108c0152600081816101de015281816105aa01528181610b5b0152610d9e01526115b56000f3fe608060405234801561001057600080fd5b50600436106101b95760003560e01c8063a27a944d116100f9578063e02a4dfd11610097578063f2fde38b11610071578063f2fde38b14610434578063f4925de514610447578063f69f1e4a1461044e578063f966ade71461046e57600080fd5b8063e02a4dfd146103b9578063e86ef40b146103c3578063e8a7da8e146103ec57600080fd5b8063bd09085a116100d3578063bd09085a14610375578063caec25291461039e578063d9e69a05146103b1578063dac3fc3f1461033957600080fd5b8063a27a944d14610319578063b6f7132f14610339578063bad4a01f1461036257600080fd5b8063691d1eb311610166578063718e9e5711610140578063718e9e571461027357806373b4086b1461029a5780638a7130a0146102f55780638da5cb5b1461030857600080fd5b8063691d1eb3146102505780636e35f12414610263578063715018a61461026b57600080fd5b8063338130021161019757806333813002146102205780635b72a33a146102355780636112fe2e1461023d57600080fd5b80630307c4a1146101be57806306f220c4146101d95780630917e77614610218575b600080fd5b6101c6610476565b6040519081526020015b60405180910390f35b6102007f000000000000000000000000000000000000000000000000000000000000000081565b6040516001600160a01b0390911681526020016101d0565b6101c6610592565b61023361022e36600461145e565b61061d565b005b6101c6600581565b61023361024b36600461145e565b610999565b6101c661025e366004611477565b610bb4565b6101c6605081565b610233610bec565b6102007f000000000000000000000000000000000000000000000000000000000000000081565b6102d36102a8366004611477565b6001602081905260009182526040909120805491810154600282015460039092015490919060ff1684565b60408051948552602085019390935291830152151560608201526080016101d0565b61023361030336600461145e565b610c00565b6000546001600160a01b0316610200565b6101c6610327366004611477565b60036020526000908152604090205481565b6101c6610347366004611477565b6001600160a01b031660009081526002602052604090205490565b61023361037036600461145e565b610d41565b6101c6610383366004611477565b6001600160a01b031660009081526003602052604090205490565b6102336103ac36600461145e565b610e1c565b6101c6609681565b6101c662278d0081565b6101c66103d1366004611477565b6001600160a01b031660009081526001602052604090205490565b6103ff6103fa366004611477565b610ef7565b6040516101d0919081518152602080830151908201526040808301519082015260609182015115159181019190915260800190565b610233610442366004611477565b610f76565b60056101c6565b6101c661045c366004611477565b60026020526000908152604090205481565b610233610fcd565b6040516370a0823160e01b81523060048201526000907f00000000000000000000000000000000000000000000000000000000000000006001600160a01b0316906370a0823190602401602060405180830381865afa1580156104dd573d6000803e3d6000fd5b505050506040513d601f19601f8201168201806040525081019061050191906114a0565b7f00000000000000000000000000000000000000000000000000000000000000006001600160a01b03166318160ddd6040518163ffffffff1660e01b8152600401602060405180830381865afa15801561055f573d6000803e3d6000fd5b505050506040513d601f19601f8201168201806040525081019061058391906114a0565b61058d91906114cf565b905090565b6040516370a0823160e01b81523060048201526000907f00000000000000000000000000000000000000000000000000000000000000006001600160a01b0316906370a0823190602401602060405180830381865afa1580156105f9573d6000803e3d6000fd5b505050506040513d601f19601f8201168201806040525081019061058d91906114a0565b600081116106725760405162461bcd60e51b815260206004820152601d60248201527f416d6f756e74206d7573742062652067726561746572207468616e203000000060448201526064015b60405180910390fd5b3360009081526001602052604090206003015460ff16156106fb5760405162461bcd60e51b815260206004820152602260248201527f4578697374696e67206c6f616e206d757374206265207265706169642066697260448201527f73740000000000000000000000000000000000000000000000000000000000006064820152608401610669565b6000606461070a6096846114e2565b61071491906114f9565b336000908152600260205260409020549091508111156107765760405162461bcd60e51b815260206004820152601760248201527f496e73756666696369656e7420636f6c6c61746572616c0000000000000000006044820152606401610669565b33600090815260026020526040812054606490610795906050906114e2565b61079f91906114f9565b9050808311156107f15760405162461bcd60e51b815260206004820152601b60248201527f426f72726f7720616d6f756e742065786365656473206c696d697400000000006044820152606401610669565b6040516370a0823160e01b815230600482015283907f00000000000000000000000000000000000000000000000000000000000000006001600160a01b0316906370a0823190602401602060405180830381865afa158015610857573d6000803e3d6000fd5b505050506040513d601f19601f8201168201806040525081019061087b91906114a0565b10156108c95760405162461bcd60e51b815260206004820152601e60248201527f496e73756666696369656e742074434f524520696e20636f6e747261637400006044820152606401610669565b60408051608081018252848152602080820185815242838501908152600160608501818152336000818152958390529690942094518555915191840191909155516002830155516003909101805460ff1916911515919091179055610959906001600160a01b037f00000000000000000000000000000000000000000000000000000000000000001690856110fa565b604080518481526020810184905233917e6b9bb4766cf5ab74b890df959e4fad0e54b1c3885e49c9541d36253a6e39e691015b60405180910390a2505050565b600081116109e95760405162461bcd60e51b815260206004820152601d60248201527f416d6f756e74206d7573742062652067726561746572207468616e20300000006044820152606401610669565b33600090815260026020526040902054811115610a485760405162461bcd60e51b815260206004820152601760248201527f496e73756666696369656e7420636f6c6c61746572616c0000000000000000006044820152606401610669565b3360009081526001602052604081206003015460ff16610a69576000610a7a565b336000908152600160205260409020545b905060006064610a8b6096846114e2565b610a9591906114f9565b336000908152600260205260409020549091508190610ab59085906114cf565b1015610b295760405162461bcd60e51b815260206004820152602860248201527f5769746864726177616c20776f756c6420756e646572636f6c6c61746572616c60448201527f697a65206c6f616e0000000000000000000000000000000000000000000000006064820152608401610669565b3360009081526002602052604081208054859290610b489084906114cf565b90915550610b8290506001600160a01b037f00000000000000000000000000000000000000000000000000000000000000001633856110fa565b60405183815233907fc30fcfbcaac9e0deffa719714eaa82396ff506a0d0d0eebe170830177288715d9060200161098c565b6001600160a01b038116600090815260026020526040812054606490610bdc906050906114e2565b610be691906114f9565b92915050565b610bf4611173565b610bfe60006111b9565b565b60008111610c505760405162461bcd60e51b815260206004820152601d60248201527f416d6f756e74206d7573742062652067726561746572207468616e20300000006044820152606401610669565b33600090815260036020526040902054811115610caf5760405162461bcd60e51b815260206004820152601460248201527f496e73756666696369656e742062616c616e63650000000000000000000000006044820152606401610669565b3360009081526003602052604081208054839290610cce9084906114cf565b90915550610d0890506001600160a01b037f00000000000000000000000000000000000000000000000000000000000000001633836110fa565b60405181815233907f649da164477c349fb84729301ef2305a006a7c6f044f4c44f87bfe6b703cd939906020015b60405180910390a250565b60008111610d915760405162461bcd60e51b815260206004820152601d60248201527f416d6f756e74206d7573742062652067726561746572207468616e20300000006044820152606401610669565b610dc66001600160a01b037f000000000000000000000000000000000000000000000000000000000000000016333084611221565b3360009081526002602052604081208054839290610de590849061151b565b909155505060405181815233907fd7243f6f8212d5188fd054141cf6ea89cfc0d91facb8c3afe2f88a135848014290602001610d36565b60008111610e6c5760405162461bcd60e51b815260206004820152601d60248201527f416d6f756e74206d7573742062652067726561746572207468616e20300000006044820152606401610669565b610ea16001600160a01b037f000000000000000000000000000000000000000000000000000000000000000016333084611221565b3360009081526003602052604081208054839290610ec090849061151b565b909155505060405181815233907fff3fe0a44f246a23658d2648f39518abaf32391025fc3bb3c92e107b6dfa83d190602001610d36565b610f2460405180608001604052806000815260200160008152602001600081526020016000151581525090565b506001600160a01b0316600090815260016020818152604092839020835160808101855281548152928101549183019190915260028101549282019290925260039091015460ff161515606082015290565b610f7e611173565b6001600160a01b038116610fc1576040517f1e4fbdf700000000000000000000000000000000000000000000000000000000815260006004820152602401610669565b610fca816111b9565b50565b336000908152600160205260409020600381015460ff166110305760405162461bcd60e51b815260206004820152600e60248201527f4e6f20616374697665206c6f616e0000000000000000000000000000000000006044820152606401610669565b600063bbf81e0082600201544261104791906114cf565b8354611055906005906114e2565b61105f91906114e2565b61106991906114f9565b9050600081836000015461107d919061151b565b90506110b46001600160a01b037f000000000000000000000000000000000000000000000000000000000000000016333084611221565b60038301805460ff191690558254604080519182526020820184905233917fc7ce0a35f17b490de2a317e7fecb2cae86b1abffb03800b2f492823521382698910161098c565b6040516001600160a01b0383811660248301526044820183905261116e91859182169063a9059cbb906064015b604051602081830303815290604052915060e01b6020820180517bffffffffffffffffffffffffffffffffffffffffffffffffffffffff8381831617835250505050611260565b505050565b6000546001600160a01b03163314610bfe576040517f118cdaa7000000000000000000000000000000000000000000000000000000008152336004820152602401610669565b600080546001600160a01b038381167fffffffffffffffffffffffff0000000000000000000000000000000000000000831681178455604051919092169283917f8be0079c531659141344cd1fd0a4f28419497f9722a3daafe3b4186f6b6457e09190a35050565b6040516001600160a01b03848116602483015283811660448301526064820183905261125a9186918216906323b872dd90608401611127565b50505050565b60006112756001600160a01b038416836112dc565b9050805160001415801561129a575080806020019051810190611298919061152e565b155b1561116e576040517f5274afe70000000000000000000000000000000000000000000000000000000081526001600160a01b0384166004820152602401610669565b60606112ea838360006112f1565b9392505050565b60608147101561132f576040517fcd786059000000000000000000000000000000000000000000000000000000008152306004820152602401610669565b600080856001600160a01b0316848660405161134b9190611550565b60006040518083038185875af1925050503d8060008114611388576040519150601f19603f3d011682016040523d82523d6000602084013e61138d565b606091505b509150915061139d8683836113a7565b9695505050505050565b6060826113bc576113b78261141c565b6112ea565b81511580156113d357506001600160a01b0384163b155b15611415576040517f9996b3150000000000000000000000000000000000000000000000000000000081526001600160a01b0385166004820152602401610669565b50806112ea565b80511561142c5780518082602001fd5b6040517f1425ea4200000000000000000000000000000000000000000000000000000000815260040160405180910390fd5b60006020828403121561147057600080fd5b5035919050565b60006020828403121561148957600080fd5b81356001600160a01b03811681146112ea57600080fd5b6000602082840312156114b257600080fd5b5051919050565b634e487b7160e01b600052601160045260246000fd5b81810381811115610be657610be66114b9565b8082028115828204841417610be657610be66114b9565b60008261151657634e487b7160e01b600052601260045260246000fd5b500490565b80820180821115610be657610be66114b9565b60006020828403121561154057600080fd5b815180151581146112ea57600080fd5b6000825160005b818110156115715760208186018101518583015201611557565b50600092019182525091905056fea264697066735822122099bed86623893f9c65b306ca9e1885712bd4bdb2a2d60cd3b9881ac38c4d318464736f6c63430008180033",
  "linkReferences": {},
  "deployedLinkReferences": {}
}