{
  "_format": "hh-sol-artifact-1",
  "contractName": "CoreLoanPlatform",
  "sourceName": "contracts/CoreLoanPlatform.sol",
  "abi": [
    {
      "inputs": [
        {
          "internalType": "address",
          "name": "_USD",
          "type": "address"
        },
        {
          "internalType": "address",
          "name": "_BTC",
          "type": "address"
        }
      ],
      "stateMutability": "nonpayable",
      "type": "constructor"
    },
    {
      "inputs": [
        {
          "internalType": "address",
          "name": "target",
          "type": "address"
        }
      ],
      "name": "AddressEmptyCode",
      "type": "error"
    },
    {
      "inputs": [
        {
          "internalType": "address",
          "name": "account",
          "type": "address"
        }
      ],
      "name": "AddressInsufficientBalance",
      "type": "error"
    },
    {
      "inputs": [],
      "name": "FailedInnerCall",
      "type": "error"
    },
    {
      "inputs": [
        {
          "internalType": "address",
          "name": "owner",
          "type": "address"
        }
      ],
      "name": "OwnableInvalidOwner",
      "type": "error"
    },
    {
      "inputs": [
        {
          "internalType": "address",
          "name": "account",
          "type": "address"
        }
      ],
      "name": "OwnableUnauthorizedAccount",
      "type": "error"
    },
    {
      "inputs": [
        {
          "internalType": "address",
          "name": "token",
          "type": "address"
        }
      ],
      "name": "SafeERC20FailedOperation",
      "type": "error"
    },
    {
      "anonymous": false,
      "inputs": [
        {
          "indexed": true,
          "internalType": "address",
          "name": "lender",
          "type": "address"
        },
        {
          "indexed": false,
          "internalType": "uint256",
          "name": "amount",
          "type": "uint256"
        }
      ],
      "name": "BTCDeposited",
      "type": "event"
    },
    {
      "anonymous": false,
      "inputs": [
        {
          "indexed": true,
          "internalType": "address",
          "name": "lender",
          "type": "address"
        },
        {
          "indexed": false,
          "internalType": "uint256",
          "name": "amount",
          "type": "uint256"
        }
      ],
      "name": "BTCWithdrawn",
      "type": "event"
    },
    {
      "anonymous": false,
      "inputs": [
        {
          "indexed": true,
          "internalType": "address",
          "name": "user",
          "type": "address"
        },
        {
          "indexed": false,
          "internalType": "uint256",
          "name": "amount",
          "type": "uint256"
        }
      ],
      "name": "CollateralDeposited",
      "type": "event"
    },
    {
      "anonymous": false,
      "inputs": [
        {
          "indexed": true,
          "internalType": "address",
          "name": "user",
          "type": "address"
        },
        {
          "indexed": false,
          "internalType": "uint256",
          "name": "amount",
          "type": "uint256"
        }
      ],
      "name": "CollateralWithdrawn",
      "type": "event"
    },
    {
      "anonymous": false,
      "inputs": [
        {
          "indexed": true,
          "internalType": "address",
          "name": "borrower",
          "type": "address"
        },
        {
          "indexed": false,
          "internalType": "uint256",
          "name": "amount",
          "type": "uint256"
        },
        {
          "indexed": false,
          "internalType": "uint256",
          "name": "interest",
          "type": "uint256"
        }
      ],
      "name": "LoanRepaid",
      "type": "event"
    },
    {
      "anonymous": false,
      "inputs": [
        {
          "indexed": true,
          "internalType": "address",
          "name": "borrower",
          "type": "address"
        },
        {
          "indexed": false,
          "internalType": "uint256",
          "name": "amount",
          "type": "uint256"
        },
        {
          "indexed": false,
          "internalType": "uint256",
          "name": "collateral",
          "type": "uint256"
        }
      ],
      "name": "LoanTaken",
      "type": "event"
    },
    {
      "anonymous": false,
      "inputs": [
        {
          "indexed": true,
          "internalType": "address",
          "name": "previousOwner",
          "type": "address"
        },
        {
          "indexed": true,
          "internalType": "address",
          "name": "newOwner",
          "type": "address"
        }
      ],
      "name": "OwnershipTransferred",
      "type": "event"
    },
    {
      "inputs": [],
      "name": "BORROWABLE_RATIO",
      "outputs": [
        {
          "internalType": "uint256",
          "name": "",
          "type": "uint256"
        }
      ],
      "stateMutability": "view",
      "type": "function"
    },
    {
      "inputs": [],
      "name": "BTC",
      "outputs": [
        {
          "internalType": "contract IERC20",
          "name": "",
          "type": "address"
        }
      ],
      "stateMutability": "view",
      "type": "function"
    },
    {
      "inputs": [],
      "name": "COLLATERAL_RATIO",
      "outputs": [
        {
          "internalType": "uint256",
          "name": "",
          "type": "uint256"
        }
      ],
      "stateMutability": "view",
      "type": "function"
    },
    {
      "inputs": [],
      "name": "INTEREST_RATE",
      "outputs": [
        {
          "internalType": "uint256",
          "name": "",
          "type": "uint256"
        }
      ],
      "stateMutability": "view",
      "type": "function"
    },
    {
      "inputs": [],
      "name": "LOAN_DURATION",
      "outputs": [
        {
          "internalType": "uint256",
          "name": "",
          "type": "uint256"
        }
      ],
      "stateMutability": "view",
      "type": "function"
    },
    {
      "inputs": [],
      "name": "USD",
      "outputs": [
        {
          "internalType": "contract IERC20",
          "name": "",
          "type": "address"
        }
      ],
      "stateMutability": "view",
      "type": "function"
    },
    {
      "inputs": [
        {
          "internalType": "uint256",
          "name": "amount",
          "type": "uint256"
        }
      ],
      "name": "borrowBTC",
      "outputs": [],
      "stateMutability": "nonpayable",
      "type": "function"
    },
    {
      "inputs": [
        {
          "internalType": "address",
          "name": "user",
          "type": "address"
        }
      ],
      "name": "calculateInterest",
      "outputs": [
        {
          "internalType": "uint256",
          "name": "",
          "type": "uint256"
        }
      ],
      "stateMutability": "view",
      "type": "function"
    },
    {
      "inputs": [
        {
          "internalType": "uint256",
          "name": "amount",
          "type": "uint256"
        }
      ],
      "name": "depositBTC",
      "outputs": [],
      "stateMutability": "nonpayable",
      "type": "function"
    },
    {
      "inputs": [
        {
          "internalType": "uint256",
          "name": "amount",
          "type": "uint256"
        }
      ],
      "name": "depositCollateral",
      "outputs": [],
      "stateMutability": "nonpayable",
      "type": "function"
    },
    {
      "inputs": [
        {
          "internalType": "address",
          "name": "user",
          "type": "address"
        }
      ],
      "name": "getBorrowableAmount",
      "outputs": [
        {
          "internalType": "uint256",
          "name": "",
          "type": "uint256"
        }
      ],
      "stateMutability": "view",
      "type": "function"
    },
    {
      "inputs": [],
      "name": "getCurrentApy",
      "outputs": [
        {
          "internalType": "uint256",
          "name": "",
          "type": "uint256"
        }
      ],
      "stateMutability": "pure",
      "type": "function"
    },
    {
      "inputs": [
        {
          "internalType": "address",
          "name": "lender",
          "type": "address"
        }
      ],
      "name": "getLenderBalance",
      "outputs": [
        {
          "internalType": "uint256",
          "name": "",
          "type": "uint256"
        }
      ],
      "stateMutability": "view",
      "type": "function"
    },
    {
      "inputs": [
        {
          "internalType": "address",
          "name": "borrower",
          "type": "address"
        }
      ],
      "name": "getLoanDetails",
      "outputs": [
        {
          "components": [
            {
              "internalType": "uint256",
              "name": "amount",
              "type": "uint256"
            },
            {
              "internalType": "uint256",
              "name": "collateral",
              "type": "uint256"
            },
            {
              "internalType": "uint256",
              "name": "timestamp",
              "type": "uint256"
            },
            {
              "internalType": "bool",
              "name": "active",
              "type": "bool"
            }
          ],
          "internalType": "struct CoreLoanPlatform.Loan",
          "name": "",
          "type": "tuple"
        }
      ],
      "stateMutability": "view",
      "type": "function"
    },
    {
      "inputs": [],
      "name": "getTotalBorrowed",
      "outputs": [
        {
          "internalType": "uint256",
          "name": "",
          "type": "uint256"
        }
      ],
      "stateMutability": "view",
      "type": "function"
    },
    {
      "inputs": [],
      "name": "getTotalStaked",
      "outputs": [
        {
          "internalType": "uint256",
          "name": "",
          "type": "uint256"
        }
      ],
      "stateMutability": "view",
      "type": "function"
    },
    {
      "inputs": [
        {
          "internalType": "address",
          "name": "user",
          "type": "address"
        }
      ],
      "name": "getUserBorrowed",
      "outputs": [
        {
          "internalType": "uint256",
          "name": "",
          "type": "uint256"
        }
      ],
      "stateMutability": "view",
      "type": "function"
    },
    {
      "inputs": [
        {
          "internalType": "address",
          "name": "user",
          "type": "address"
        }
      ],
      "name": "getUserCollateral",
      "outputs": [
        {
          "internalType": "uint256",
          "name": "",
          "type": "uint256"
        }
      ],
      "stateMutability": "view",
      "type": "function"
    },
    {
      "inputs": [
        {
          "internalType": "address",
          "name": "user",
          "type": "address"
        }
      ],
      "name": "getUserStaked",
      "outputs": [
        {
          "internalType": "uint256",
          "name": "",
          "type": "uint256"
        }
      ],
      "stateMutability": "view",
      "type": "function"
    },
    {
      "inputs": [
        {
          "internalType": "address",
          "name": "",
          "type": "address"
        }
      ],
      "name": "lenderBalances",
      "outputs": [
        {
          "internalType": "uint256",
          "name": "",
          "type": "uint256"
        }
      ],
      "stateMutability": "view",
      "type": "function"
    },
    {
      "inputs": [
        {
          "internalType": "address",
          "name": "",
          "type": "address"
        }
      ],
      "name": "loans",
      "outputs": [
        {
          "internalType": "uint256",
          "name": "amount",
          "type": "uint256"
        },
        {
          "internalType": "uint256",
          "name": "collateral",
          "type": "uint256"
        },
        {
          "internalType": "uint256",
          "name": "timestamp",
          "type": "uint256"
        },
        {
          "internalType": "bool",
          "name": "active",
          "type": "bool"
        }
      ],
      "stateMutability": "view",
      "type": "function"
    },
    {
      "inputs": [],
      "name": "owner",
      "outputs": [
        {
          "internalType": "address",
          "name": "",
          "type": "address"
        }
      ],
      "stateMutability": "view",
      "type": "function"
    },
    {
      "inputs": [],
      "name": "renounceOwnership",
      "outputs": [],
      "stateMutability": "nonpayable",
      "type": "function"
    },
    {
      "inputs": [
        {
          "internalType": "address",
          "name": "user",
          "type": "address"
        }
      ],
      "name": "repayLoan",
      "outputs": [],
      "stateMutability": "nonpayable",
      "type": "function"
    },
    {
      "inputs": [
        {
          "internalType": "address",
          "name": "newOwner",
          "type": "address"
        }
      ],
      "name": "transferOwnership",
      "outputs": [],
      "stateMutability": "nonpayable",
      "type": "function"
    },
    {
      "inputs": [
        {
          "internalType": "address",
          "name": "",
          "type": "address"
        }
      ],
      "name": "userCollateral",
      "outputs": [
        {
          "internalType": "uint256",
          "name": "",
          "type": "uint256"
        }
      ],
      "stateMutability": "view",
      "type": "function"
    },
    {
      "inputs": [
        {
          "internalType": "uint256",
          "name": "amount",
          "type": "uint256"
        }
      ],
      "name": "withdrawBTC",
      "outputs": [],
      "stateMutability": "nonpayable",
      "type": "function"
    },
    {
      "inputs": [
        {
          "internalType": "uint256",
          "name": "amount",
          "type": "uint256"
        }
      ],
      "name": "withdrawCollateral",
      "outputs": [],
      "stateMutability": "nonpayable",
      "type": "function"
    }
  ],
  "bytecode": "0x60c0604052600060015560006002553480156200001b57600080fd5b50604051620014b9380380620014b98339810160408190526200003e9162000166565b33806200006657604051631e4fbdf760e01b8152600060048201526024015b60405180910390fd5b6200007181620000f9565b506001600160a01b038216158015906200009357506001600160a01b03811615155b620000e15760405162461bcd60e51b815260206004820152601760248201527f496e76616c696420746f6b656e2061646472657373657300000000000000000060448201526064016200005d565b6001600160a01b039182166080521660a0526200019e565b600080546001600160a01b038381166001600160a01b0319831681178455604051919092169283917f8be0079c531659141344cd1fd0a4f28419497f9722a3daafe3b4186f6b6457e09190a35050565b80516001600160a01b03811681146200016157600080fd5b919050565b600080604083850312156200017a57600080fd5b620001858362000149565b9150620001956020840162000149565b90509250929050565b60805160a0516112cb620001ee60003960008181610236015281816107cf0152818161088c01528181610bf50152610d1b0152600081816101f701528181610630015261097701526112cb6000f3fe608060405234801561001057600080fd5b50600436106101c45760003560e01c8063a6b6d798116100f9578063e02a4dfd11610097578063e8a7da8e11610071578063e8a7da8e146103e7578063f2fde38b1461042f578063f4925de514610442578063f69f1e4a1461044957600080fd5b8063e02a4dfd146103dd578063e11932cf14610385578063e86ef40b1461038557600080fd5b8063bd09085a116100d3578063bd09085a14610385578063d1a4056414610399578063d9e69a05146103ac578063dac3fc3f146103b457600080fd5b8063a6b6d79814610336578063b6f7132f14610349578063bad4a01f1461037257600080fd5b8063691d1eb31161016657806373b4086b1161014057806373b4086b146102965780638da5cb5b146102f257806390b4588b14610303578063a27a944d1461031657600080fd5b8063691d1eb3146102735780636e35f12414610286578063715018a61461028e57600080fd5b80631bf6c21b116101a25780631bf6c21b146101f25780632792949d146102315780635b72a33a146102585780636112fe2e1461026057600080fd5b80630307c4a1146101c95780630917e776146101c9578063190ef1e6146101df575b600080fd5b60005b6040519081526020015b60405180910390f35b6101f06101ed366004611174565b50565b005b6102197f000000000000000000000000000000000000000000000000000000000000000081565b6040516001600160a01b0390911681526020016101d6565b6102197f000000000000000000000000000000000000000000000000000000000000000081565b6101cc600581565b6101f061026e36600461119d565b610469565b6101cc610281366004611174565b610692565b6101cc605081565b6101f06106ca565b6102d06102a4366004611174565b600360208190526000918252604090912080546001820154600283015492909301549092919060ff1684565b60408051948552602085019390935291830152151560608201526080016101d6565b6000546001600160a01b0316610219565b6101f061031136600461119d565b6106de565b6101cc610324366004611174565b60056020526000908152604090205481565b6101f061034436600461119d565b61082f565b6101cc610357366004611174565b6001600160a01b031660009081526004602052604090205490565b6101f061038036600461119d565b61091a565b6101cc610393366004611174565b50600090565b6101f06103a736600461119d565b6109f5565b6101cc609681565b6101cc6103c2366004611174565b6001600160a01b031660009081526005602052604090205490565b6101cc62278d0081565b6103fa6103f5366004611174565b610d8a565b6040516101d6919081518152602080830151908201526040808301519082015260609182015115159181019190915260800190565b6101f061043d366004611174565b610dbc565b60056101cc565b6101cc610457366004611174565b60046020526000908152604090205481565b600081116104be5760405162461bcd60e51b815260206004820152601d60248201527f416d6f756e74206d7573742062652067726561746572207468616e203000000060448201526064015b60405180910390fd5b3360009081526004602052604090205481111561051d5760405162461bcd60e51b815260206004820152601760248201527f496e73756666696369656e7420636f6c6c61746572616c00000000000000000060448201526064016104b5565b3360009081526003602081905260408220015460ff1661053e57600061054f565b336000908152600360205260409020545b9050600060646105606096846111cc565b61056a91906111e3565b33600090815260046020526040902054909150819061058a908590611205565b10156105fe5760405162461bcd60e51b815260206004820152602860248201527f5769746864726177616c20776f756c6420756e646572636f6c6c61746572616c60448201527f697a65206c6f616e00000000000000000000000000000000000000000000000060648201526084016104b5565b336000908152600460205260408120805485929061061d908490611205565b9091555061065790506001600160a01b037f0000000000000000000000000000000000000000000000000000000000000000163385610e10565b60405183815233907fc30fcfbcaac9e0deffa719714eaa82396ff506a0d0d0eebe170830177288715d906020015b60405180910390a2505050565b6001600160a01b0381166000908152600460205260408120546064906106ba906050906111cc565b6106c491906111e3565b92915050565b6106d2610e89565b6106dc6000610ecf565b565b6000811161072e5760405162461bcd60e51b815260206004820152601d60248201527f416d6f756e74206d7573742062652067726561746572207468616e203000000060448201526064016104b5565b3360009081526005602052604090205481111561078d5760405162461bcd60e51b815260206004820152601460248201527f496e73756666696369656e742062616c616e636500000000000000000000000060448201526064016104b5565b33600090815260056020526040812080548392906107ac908490611205565b90915550506001546107bf908290611205565b6001556107f66001600160a01b037f0000000000000000000000000000000000000000000000000000000000000000163383610e10565b60405181815233907f46cb947848d6e66f42fd865aff4e0b9765da557ed05874db5a3c931ccea58ef1906020015b60405180910390a250565b6000811161087f5760405162461bcd60e51b815260206004820152601d60248201527f416d6f756e74206d7573742062652067726561746572207468616e203000000060448201526064016104b5565b6108b46001600160a01b037f000000000000000000000000000000000000000000000000000000000000000016333084610f37565b33600090815260056020526040812080548392906108d3908490611218565b90915550506001546108e6908290611218565b60015560405181815233907ec876900062bf6768530bd9be84c146f5c051f4a50a5bf7fbcdd9ed4c8fb15490602001610824565b6000811161096a5760405162461bcd60e51b815260206004820152601d60248201527f416d6f756e74206d7573742062652067726561746572207468616e203000000060448201526064016104b5565b61099f6001600160a01b037f000000000000000000000000000000000000000000000000000000000000000016333084610f37565b33600090815260046020526040812080548392906109be908490611218565b909155505060405181815233907fd7243f6f8212d5188fd054141cf6ea89cfc0d91facb8c3afe2f88a135848014290602001610824565b60008111610a455760405162461bcd60e51b815260206004820152601d60248201527f416d6f756e74206d7573742062652067726561746572207468616e203000000060448201526064016104b5565b336000908152600360208190526040909120015460ff1615610acf5760405162461bcd60e51b815260206004820152602260248201527f4578697374696e67206c6f616e206d757374206265207265706169642066697260448201527f737400000000000000000000000000000000000000000000000000000000000060648201526084016104b5565b60006064610ade6096846111cc565b610ae891906111e3565b33600090815260046020526040902054909150811115610b4a5760405162461bcd60e51b815260206004820152601760248201527f496e73756666696369656e7420636f6c6c61746572616c00000000000000000060448201526064016104b5565b33600090815260046020526040812054606490610b69906050906111cc565b610b7391906111e3565b905080831115610bc55760405162461bcd60e51b815260206004820152601b60248201527f426f72726f7720616d6f756e742065786365656473206c696d6974000000000060448201526064016104b5565b6040517f70a0823100000000000000000000000000000000000000000000000000000000815230600482015283907f00000000000000000000000000000000000000000000000000000000000000006001600160a01b0316906370a0823190602401602060405180830381865afa158015610c44573d6000803e3d6000fd5b505050506040513d601f19601f82011682018060405250810190610c68919061122b565b1015610cb65760405162461bcd60e51b815260206004820152601c60248201527f496e73756666696369656e742042544320696e20636f6e74726163740000000060448201526064016104b5565b604080516080810182528481526020808201858152428385019081526001606085018181523360008181526003968790529790972095518655925190850155516002840155519101805460ff1916911515919091179055610d42906001600160a01b037f0000000000000000000000000000000000000000000000000000000000000000169085610e10565b82600254610d509190611218565b600255604080518481526020810184905233917e6b9bb4766cf5ab74b890df959e4fad0e54b1c3885e49c9541d36253a6e39e69101610685565b610db760405180608001604052806000815260200160008152602001600081526020016000151581525090565b919050565b610dc4610e89565b6001600160a01b038116610e07576040517f1e4fbdf7000000000000000000000000000000000000000000000000000000008152600060048201526024016104b5565b6101ed81610ecf565b6040516001600160a01b03838116602483015260448201839052610e8491859182169063a9059cbb906064015b604051602081830303815290604052915060e01b6020820180517bffffffffffffffffffffffffffffffffffffffffffffffffffffffff8381831617835250505050610f76565b505050565b6000546001600160a01b031633146106dc576040517f118cdaa70000000000000000000000000000000000000000000000000000000081523360048201526024016104b5565b600080546001600160a01b038381167fffffffffffffffffffffffff0000000000000000000000000000000000000000831681178455604051919092169283917f8be0079c531659141344cd1fd0a4f28419497f9722a3daafe3b4186f6b6457e09190a35050565b6040516001600160a01b038481166024830152838116604483015260648201839052610f709186918216906323b872dd90608401610e3d565b50505050565b6000610f8b6001600160a01b03841683610ff2565b90508051600014158015610fb0575080806020019051810190610fae9190611244565b155b15610e84576040517f5274afe70000000000000000000000000000000000000000000000000000000081526001600160a01b03841660048201526024016104b5565b606061100083836000611007565b9392505050565b606081471015611045576040517fcd7860590000000000000000000000000000000000000000000000000000000081523060048201526024016104b5565b600080856001600160a01b031684866040516110619190611266565b60006040518083038185875af1925050503d806000811461109e576040519150601f19603f3d011682016040523d82523d6000602084013e6110a3565b606091505b50915091506110b38683836110bd565b9695505050505050565b6060826110d2576110cd82611132565b611000565b81511580156110e957506001600160a01b0384163b155b1561112b576040517f9996b3150000000000000000000000000000000000000000000000000000000081526001600160a01b03851660048201526024016104b5565b5080611000565b8051156111425780518082602001fd5b6040517f1425ea4200000000000000000000000000000000000000000000000000000000815260040160405180910390fd5b60006020828403121561118657600080fd5b81356001600160a01b038116811461100057600080fd5b6000602082840312156111af57600080fd5b5035919050565b634e487b7160e01b600052601160045260246000fd5b80820281158282048414176106c4576106c46111b6565b60008261120057634e487b7160e01b600052601260045260246000fd5b500490565b818103818111156106c4576106c46111b6565b808201808211156106c4576106c46111b6565b60006020828403121561123d57600080fd5b5051919050565b60006020828403121561125657600080fd5b8151801515811461100057600080fd5b6000825160005b81811015611287576020818601810151858301520161126d565b50600092019182525091905056fea2646970667358221220ca3954f6ff3d4e175422537aabb9631647c607f22ebb62d07831daf36a4da15664736f6c63430008180033",
  "linkReferences": {},
  "deployedLinkReferences": {}
}